{
  "_format": "hh-sol-artifact-1",
  "contractName": "JITLPWithAave",
  "sourceName": "contracts/JITLPWithAave.sol",
  "abi": [
    {
      "inputs": [
        {
          "internalType": "address",
          "name": "_weth",
          "type": "address"
        },
        {
          "internalType": "address",
          "name": "_usdc",
          "type": "address"
        },
        {
          "internalType": "address",
          "name": "_aavePool",
          "type": "address"
        },
        {
          "internalType": "address",
          "name": "_swapRouter",
          "type": "address"
        },
        {
          "internalType": "address",
          "name": "_positionManager",
          "type": "address"
        }
      ],
      "stateMutability": "nonpayable",
      "type": "constructor"
    },
    {
      "anonymous": false,
      "inputs": [
        {
          "indexed": true,
          "internalType": "address",
          "name": "previousOwner",
          "type": "address"
        },
        {
          "indexed": true,
          "internalType": "address",
          "name": "newOwner",
          "type": "address"
        }
      ],
      "name": "OwnershipTransferred",
      "type": "event"
    },
    {
      "inputs": [],
      "name": "aavePool",
      "outputs": [
        {
          "internalType": "address",
          "name": "",
          "type": "address"
        }
      ],
      "stateMutability": "view",
      "type": "function"
    },
    {
      "inputs": [
        {
          "internalType": "address[]",
          "name": "assets",
          "type": "address[]"
        },
        {
          "internalType": "uint256[]",
          "name": "amounts",
          "type": "uint256[]"
        },
        {
          "internalType": "uint256[]",
          "name": "premiums",
          "type": "uint256[]"
        },
        {
          "internalType": "address",
          "name": "initiator",
          "type": "address"
        },
        {
          "internalType": "bytes",
          "name": "",
          "type": "bytes"
        }
      ],
      "name": "executeOperation",
      "outputs": [
        {
          "internalType": "bool",
          "name": "",
          "type": "bool"
        }
      ],
      "stateMutability": "nonpayable",
      "type": "function"
    },
    {
      "inputs": [
        {
          "internalType": "uint256",
          "name": "amount",
          "type": "uint256"
        }
      ],
      "name": "initiateFlashLoan",
      "outputs": [],
      "stateMutability": "nonpayable",
      "type": "function"
    },
    {
      "inputs": [
        {
          "internalType": "address",
          "name": "",
          "type": "address"
        },
        {
          "internalType": "address",
          "name": "",
          "type": "address"
        },
        {
          "internalType": "uint256",
          "name": "",
          "type": "uint256"
        },
        {
          "internalType": "bytes",
          "name": "",
          "type": "bytes"
        }
      ],
      "name": "onERC721Received",
      "outputs": [
        {
          "internalType": "bytes4",
          "name": "",
          "type": "bytes4"
        }
      ],
      "stateMutability": "pure",
      "type": "function"
    },
    {
      "inputs": [],
      "name": "owner",
      "outputs": [
        {
          "internalType": "address",
          "name": "",
          "type": "address"
        }
      ],
      "stateMutability": "view",
      "type": "function"
    },
    {
      "inputs": [],
      "name": "poolFee",
      "outputs": [
        {
          "internalType": "uint24",
          "name": "",
          "type": "uint24"
        }
      ],
      "stateMutability": "view",
      "type": "function"
    },
    {
      "inputs": [],
      "name": "positionManager",
      "outputs": [
        {
          "internalType": "address",
          "name": "",
          "type": "address"
        }
      ],
      "stateMutability": "view",
      "type": "function"
    },
    {
      "inputs": [],
      "name": "renounceOwnership",
      "outputs": [],
      "stateMutability": "nonpayable",
      "type": "function"
    },
    {
      "inputs": [],
      "name": "swapRouter",
      "outputs": [
        {
          "internalType": "address",
          "name": "",
          "type": "address"
        }
      ],
      "stateMutability": "view",
      "type": "function"
    },
    {
      "inputs": [],
      "name": "tickLower",
      "outputs": [
        {
          "internalType": "int24",
          "name": "",
          "type": "int24"
        }
      ],
      "stateMutability": "view",
      "type": "function"
    },
    {
      "inputs": [],
      "name": "tickUpper",
      "outputs": [
        {
          "internalType": "int24",
          "name": "",
          "type": "int24"
        }
      ],
      "stateMutability": "view",
      "type": "function"
    },
    {
      "inputs": [],
      "name": "tokenId",
      "outputs": [
        {
          "internalType": "uint256",
          "name": "",
          "type": "uint256"
        }
      ],
      "stateMutability": "view",
      "type": "function"
    },
    {
      "inputs": [
        {
          "internalType": "address",
          "name": "newOwner",
          "type": "address"
        }
      ],
      "name": "transferOwnership",
      "outputs": [],
      "stateMutability": "nonpayable",
      "type": "function"
    },
    {
      "inputs": [],
      "name": "usdc",
      "outputs": [
        {
          "internalType": "address",
          "name": "",
          "type": "address"
        }
      ],
      "stateMutability": "view",
      "type": "function"
    },
    {
      "inputs": [],
      "name": "weth",
      "outputs": [
        {
          "internalType": "address",
          "name": "",
          "type": "address"
        }
      ],
      "stateMutability": "view",
      "type": "function"
    },
    {
      "stateMutability": "payable",
      "type": "receive"
    }
  ],
  "bytecode": "0x6101206040523480156200001257600080fd5b506040516200257838038062002578833981810160405281019062000038919062000540565b620000586200004c6200040a60201b60201c565b6200041260201b60201c565b8473ffffffffffffffffffffffffffffffffffffffff1660808173ffffffffffffffffffffffffffffffffffffffff16815250508373ffffffffffffffffffffffffffffffffffffffff1660a08173ffffffffffffffffffffffffffffffffffffffff16815250508273ffffffffffffffffffffffffffffffffffffffff1660c08173ffffffffffffffffffffffffffffffffffffffff16815250508173ffffffffffffffffffffffffffffffffffffffff1660e08173ffffffffffffffffffffffffffffffffffffffff16815250508073ffffffffffffffffffffffffffffffffffffffff166101008173ffffffffffffffffffffffffffffffffffffffff168152505060805173ffffffffffffffffffffffffffffffffffffffff1663095ea7b360e0517fffffffffffffffffffffffffffffffffffffffffffffffffffffffffffffffff6040518363ffffffff1660e01b8152600401620001be929190620005f4565b6020604051808303816000875af1158015620001de573d6000803e3d6000fd5b505050506040513d601f19601f820116820180604052508101906200020491906200065e565b5060a05173ffffffffffffffffffffffffffffffffffffffff1663095ea7b360e0517fffffffffffffffffffffffffffffffffffffffffffffffffffffffffffffffff6040518363ffffffff1660e01b815260040162000266929190620005f4565b6020604051808303816000875af115801562000286573d6000803e3d6000fd5b505050506040513d601f19601f82011682018060405250810190620002ac91906200065e565b5060805173ffffffffffffffffffffffffffffffffffffffff1663095ea7b3610100517fffffffffffffffffffffffffffffffffffffffffffffffffffffffffffffffff6040518363ffffffff1660e01b81526004016200030f929190620005f4565b6020604051808303816000875af11580156200032f573d6000803e3d6000fd5b505050506040513d601f19601f820116820180604052508101906200035591906200065e565b5060a05173ffffffffffffffffffffffffffffffffffffffff1663095ea7b3610100517fffffffffffffffffffffffffffffffffffffffffffffffffffffffffffffffff6040518363ffffffff1660e01b8152600401620003b8929190620005f4565b6020604051808303816000875af1158015620003d8573d6000803e3d6000fd5b505050506040513d601f19601f82011682018060405250810190620003fe91906200065e565b50505050505062000690565b600033905090565b60008060009054906101000a900473ffffffffffffffffffffffffffffffffffffffff169050816000806101000a81548173ffffffffffffffffffffffffffffffffffffffff021916908373ffffffffffffffffffffffffffffffffffffffff1602179055508173ffffffffffffffffffffffffffffffffffffffff168173ffffffffffffffffffffffffffffffffffffffff167f8be0079c531659141344cd1fd0a4f28419497f9722a3daafe3b4186f6b6457e060405160405180910390a35050565b600080fd5b600073ffffffffffffffffffffffffffffffffffffffff82169050919050565b60006200050882620004db565b9050919050565b6200051a81620004fb565b81146200052657600080fd5b50565b6000815190506200053a816200050f565b92915050565b600080600080600060a086880312156200055f576200055e620004d6565b5b60006200056f8882890162000529565b9550506020620005828882890162000529565b9450506040620005958882890162000529565b9350506060620005a88882890162000529565b9250506080620005bb8882890162000529565b9150509295509295909350565b620005d381620004fb565b82525050565b6000819050919050565b620005ee81620005d9565b82525050565b60006040820190506200060b6000830185620005c8565b6200061a6020830184620005e3565b9392505050565b60008115159050919050565b620006388162000621565b81146200064457600080fd5b50565b60008151905062000658816200062d565b92915050565b600060208284031215620006775762000676620004d6565b5b6000620006878482850162000647565b91505092915050565b60805160a05160c05160e05161010051611e4862000730600039600081816104310152818161072b015281816108d401526109b001526000818161068d0152610be601526000818161048001528181610b2901528181610bc20152610cc90152600081816103ac015281816105f601526107af0152600081816103d0015281816105ba0152818161077301528181610aed0152610c170152611e486000f3fe6080604052600436106100ec5760003560e01c8063715018a61161008a578063a03e4bc311610059578063a03e4bc3146102e1578063c31c9c071461030c578063dbf0497b14610337578063f2fde38b14610360576100f3565b8063715018a614610237578063791b98bc1461024e5780638da5cb5b14610279578063920f5c84146102a4576100f3565b80633e413bee116100c65780633e413bee1461018b5780633fc8cef3146101b657806355b812a8146101e157806359c4f9051461020c576100f3565b8063089fe6aa146100f8578063150b7a021461012357806317d70f7c14610160576100f3565b366100f357005b600080fd5b34801561010457600080fd5b5061010d610389565b60405161011a9190610f4e565b60405180910390f35b34801561012f57600080fd5b5061014a6004803603810190610145919061106c565b61038f565b604051610157919061112f565b60405180910390f35b34801561016c57600080fd5b506101756103a4565b6040516101829190611159565b60405180910390f35b34801561019757600080fd5b506101a06103aa565b6040516101ad9190611183565b60405180910390f35b3480156101c257600080fd5b506101cb6103ce565b6040516101d89190611183565b60405180910390f35b3480156101ed57600080fd5b506101f66103f2565b60405161020391906111ba565b60405180910390f35b34801561021857600080fd5b506102216103f7565b60405161022e91906111ba565b60405180910390f35b34801561024357600080fd5b5061024c61041b565b005b34801561025a57600080fd5b5061026361042f565b6040516102709190611183565b60405180910390f35b34801561028557600080fd5b5061028e610453565b60405161029b9190611183565b60405180910390f35b3480156102b057600080fd5b506102cb60048036038101906102c69190611281565b61047c565b6040516102d89190611398565b60405180910390f35b3480156102ed57600080fd5b506102f6610bc0565b6040516103039190611183565b60405180910390f35b34801561031857600080fd5b50610321610be4565b60405161032e9190611183565b60405180910390f35b34801561034357600080fd5b5061035e600480360381019061035991906113b3565b610c08565b005b34801561036c57600080fd5b50610387600480360381019061038291906113e0565b610d63565b005b6101f481565b600063150b7a0260e01b905095945050505050565b60015481565b7f000000000000000000000000000000000000000000000000000000000000000081565b7f000000000000000000000000000000000000000000000000000000000000000081565b603c81565b7fffffffffffffffffffffffffffffffffffffffffffffffffffffffffffffffc481565b610423610de6565b61042d6000610e64565b565b7f000000000000000000000000000000000000000000000000000000000000000081565b60008060009054906101000a900473ffffffffffffffffffffffffffffffffffffffff16905090565b60007f000000000000000000000000000000000000000000000000000000000000000073ffffffffffffffffffffffffffffffffffffffff163373ffffffffffffffffffffffffffffffffffffffff161461050c576040517f08c379a00000000000000000000000000000000000000000000000000000000081526004016105039061146a565b60405180910390fd5b3073ffffffffffffffffffffffffffffffffffffffff168473ffffffffffffffffffffffffffffffffffffffff161461057a576040517f08c379a0000000000000000000000000000000000000000000000000000000008152600401610571906114d6565b60405180910390fd5b6000888860008181106105905761058f6114f6565b5b90506020020135905060006002826105a89190611583565b905060006040518061010001604052807f000000000000000000000000000000000000000000000000000000000000000073ffffffffffffffffffffffffffffffffffffffff1681526020017f000000000000000000000000000000000000000000000000000000000000000073ffffffffffffffffffffffffffffffffffffffff1681526020016101f462ffffff1681526020013073ffffffffffffffffffffffffffffffffffffffff16815260200142815260200183815260200160008152602001600073ffffffffffffffffffffffffffffffffffffffff16815250905060007f000000000000000000000000000000000000000000000000000000000000000073ffffffffffffffffffffffffffffffffffffffff1663414bf389836040518263ffffffff1660e01b81526004016106e49190611692565b6020604051808303816000875af1158015610703573d6000803e3d6000fd5b505050506040513d601f19601f8201168201806040525081019061072791906116c3565b90507f000000000000000000000000000000000000000000000000000000000000000073ffffffffffffffffffffffffffffffffffffffff1663883164566040518061016001604052807f000000000000000000000000000000000000000000000000000000000000000073ffffffffffffffffffffffffffffffffffffffff1681526020017f000000000000000000000000000000000000000000000000000000000000000073ffffffffffffffffffffffffffffffffffffffff1681526020016101f462ffffff1681526020017fffffffffffffffffffffffffffffffffffffffffffffffffffffffffffffffc460020b8152602001603c60020b815260200186815260200184815260200160008152602001600081526020013073ffffffffffffffffffffffffffffffffffffffff168152602001428152506040518263ffffffff1660e01b815260040161087f91906117e0565b6080604051808303816000875af115801561089e573d6000803e3d6000fd5b505050506040513d601f19601f820116820180604052508101906108c29190611844565b909150905050600160008291905055507f000000000000000000000000000000000000000000000000000000000000000073ffffffffffffffffffffffffffffffffffffffff16630c49ccbe6040518060a001604052806001548152602001620f42406fffffffffffffffffffffffffffffffff1681526020016000815260200160008152602001428152506040518263ffffffff1660e01b815260040161096a9190611922565b60408051808303816000875af1158015610988573d6000803e3d6000fd5b505050506040513d601f19601f820116820180604052508101906109ac919061193d565b50507f000000000000000000000000000000000000000000000000000000000000000073ffffffffffffffffffffffffffffffffffffffff1663fc6f7865604051806080016040528060015481526020013073ffffffffffffffffffffffffffffffffffffffff1681526020016fffffffffffffffffffffffffffffffff801681526020016fffffffffffffffffffffffffffffffff80168152506040518263ffffffff1660e01b8152600401610a6391906119d2565b60408051808303816000875af1158015610a81573d6000803e3d6000fd5b505050506040513d601f19601f82011682018060405250810190610aa5919061193d565b505060008a8a6000818110610abd57610abc6114f6565b5b905060200201358d8d6000818110610ad857610ad76114f6565b5b90506020020135610ae991906119ed565b90507f000000000000000000000000000000000000000000000000000000000000000073ffffffffffffffffffffffffffffffffffffffff1663095ea7b37f0000000000000000000000000000000000000000000000000000000000000000836040518363ffffffff1660e01b8152600401610b66929190611a21565b6020604051808303816000875af1158015610b85573d6000803e3d6000fd5b505050506040513d601f19601f82011682018060405250810190610ba99190611a76565b506001955050505050509998505050505050505050565b7f000000000000000000000000000000000000000000000000000000000000000081565b7f000000000000000000000000000000000000000000000000000000000000000081565b610c10610de6565b60608060607f000000000000000000000000000000000000000000000000000000000000000083600081518110610c4a57610c496114f6565b5b602002602001019073ffffffffffffffffffffffffffffffffffffffff16908173ffffffffffffffffffffffffffffffffffffffff16815250508382600081518110610c9957610c986114f6565b5b602002602001018181525050600081600081518110610cbb57610cba6114f6565b5b6020026020010181815250507f000000000000000000000000000000000000000000000000000000000000000073ffffffffffffffffffffffffffffffffffffffff1663ab9c4b5d308585853060006040518763ffffffff1660e01b8152600401610d2b96959493929190611c8b565b600060405180830381600087803b158015610d4557600080fd5b505af1158015610d59573d6000803e3d6000fd5b5050505050505050565b610d6b610de6565b600073ffffffffffffffffffffffffffffffffffffffff168173ffffffffffffffffffffffffffffffffffffffff1603610dda576040517f08c379a0000000000000000000000000000000000000000000000000000000008152600401610dd190611d86565b60405180910390fd5b610de381610e64565b50565b610dee610f28565b73ffffffffffffffffffffffffffffffffffffffff16610e0c610453565b73ffffffffffffffffffffffffffffffffffffffff1614610e62576040517f08c379a0000000000000000000000000000000000000000000000000000000008152600401610e5990611df2565b60405180910390fd5b565b60008060009054906101000a900473ffffffffffffffffffffffffffffffffffffffff169050816000806101000a81548173ffffffffffffffffffffffffffffffffffffffff021916908373ffffffffffffffffffffffffffffffffffffffff1602179055508173ffffffffffffffffffffffffffffffffffffffff168173ffffffffffffffffffffffffffffffffffffffff167f8be0079c531659141344cd1fd0a4f28419497f9722a3daafe3b4186f6b6457e060405160405180910390a35050565b600033905090565b600062ffffff82169050919050565b610f4881610f30565b82525050565b6000602082019050610f636000830184610f3f565b92915050565b600080fd5b600080fd5b600073ffffffffffffffffffffffffffffffffffffffff82169050919050565b6000610f9e82610f73565b9050919050565b610fae81610f93565b8114610fb957600080fd5b50565b600081359050610fcb81610fa5565b92915050565b6000819050919050565b610fe481610fd1565b8114610fef57600080fd5b50565b60008135905061100181610fdb565b92915050565b600080fd5b600080fd5b600080fd5b60008083601f84011261102c5761102b611007565b5b8235905067ffffffffffffffff8111156110495761104861100c565b5b60208301915083600182028301111561106557611064611011565b5b9250929050565b60008060008060006080868803121561108857611087610f69565b5b600061109688828901610fbc565b95505060206110a788828901610fbc565b94505060406110b888828901610ff2565b935050606086013567ffffffffffffffff8111156110d9576110d8610f6e565b5b6110e588828901611016565b92509250509295509295909350565b60007fffffffff0000000000000000000000000000000000000000000000000000000082169050919050565b611129816110f4565b82525050565b60006020820190506111446000830184611120565b92915050565b61115381610fd1565b82525050565b600060208201905061116e600083018461114a565b92915050565b61117d81610f93565b82525050565b60006020820190506111986000830184611174565b92915050565b60008160020b9050919050565b6111b48161119e565b82525050565b60006020820190506111cf60008301846111ab565b92915050565b60008083601f8401126111eb576111ea611007565b5b8235905067ffffffffffffffff8111156112085761120761100c565b5b60208301915083602082028301111561122457611223611011565b5b9250929050565b60008083601f84011261124157611240611007565b5b8235905067ffffffffffffffff81111561125e5761125d61100c565b5b60208301915083602082028301111561127a57611279611011565b5b9250929050565b600080600080600080600080600060a08a8c0312156112a3576112a2610f69565b5b60008a013567ffffffffffffffff8111156112c1576112c0610f6e565b5b6112cd8c828d016111d5565b995099505060208a013567ffffffffffffffff8111156112f0576112ef610f6e565b5b6112fc8c828d0161122b565b975097505060408a013567ffffffffffffffff81111561131f5761131e610f6e565b5b61132b8c828d0161122b565b9550955050606061133e8c828d01610fbc565b93505060808a013567ffffffffffffffff81111561135f5761135e610f6e565b5b61136b8c828d01611016565b92509250509295985092959850929598565b60008115159050919050565b6113928161137d565b82525050565b60006020820190506113ad6000830184611389565b92915050565b6000602082840312156113c9576113c8610f69565b5b60006113d784828501610ff2565b91505092915050565b6000602082840312156113f6576113f5610f69565b5b600061140484828501610fbc565b91505092915050565b600082825260208201905092915050565b7f4e6f74204161766520706f6f6c00000000000000000000000000000000000000600082015250565b6000611454600d8361140d565b915061145f8261141e565b602082019050919050565b6000602082019050818103600083015261148381611447565b9050919050565b7f4e6f7420696e69746961746564206279207468697320636f6e74726163740000600082015250565b60006114c0601e8361140d565b91506114cb8261148a565b602082019050919050565b600060208201905081810360008301526114ef816114b3565b9050919050565b7f4e487b7100000000000000000000000000000000000000000000000000000000600052603260045260246000fd5b7f4e487b7100000000000000000000000000000000000000000000000000000000600052601260045260246000fd5b7f4e487b7100000000000000000000000000000000000000000000000000000000600052601160045260246000fd5b600061158e82610fd1565b915061159983610fd1565b9250826115a9576115a8611525565b5b828204905092915050565b6115bd81610f93565b82525050565b6115cc81610f30565b82525050565b6115db81610fd1565b82525050565b6115ea81610f73565b82525050565b6101008201600082015161160760008501826115b4565b50602082015161161a60208501826115b4565b50604082015161162d60408501826115c3565b50606082015161164060608501826115b4565b50608082015161165360808501826115d2565b5060a082015161166660a08501826115d2565b5060c082015161167960c08501826115d2565b5060e082015161168c60e08501826115e1565b50505050565b6000610100820190506116a860008301846115f0565b92915050565b6000815190506116bd81610fdb565b92915050565b6000602082840312156116d9576116d8610f69565b5b60006116e7848285016116ae565b91505092915050565b6116f98161119e565b82525050565b6101608201600082015161171660008501826115b4565b50602082015161172960208501826115b4565b50604082015161173c60408501826115c3565b50606082015161174f60608501826116f0565b50608082015161176260808501826116f0565b5060a082015161177560a08501826115d2565b5060c082015161178860c08501826115d2565b5060e082015161179b60e08501826115d2565b506101008201516117b06101008501826115d2565b506101208201516117c56101208501826115b4565b506101408201516117da6101408501826115d2565b50505050565b6000610160820190506117f660008301846116ff565b92915050565b60006fffffffffffffffffffffffffffffffff82169050919050565b611821816117fc565b811461182c57600080fd5b50565b60008151905061183e81611818565b92915050565b6000806000806080858703121561185e5761185d610f69565b5b600061186c878288016116ae565b945050602061187d8782880161182f565b935050604061188e878288016116ae565b925050606061189f878288016116ae565b91505092959194509250565b6118b4816117fc565b82525050565b60a0820160008201516118d060008501826115d2565b5060208201516118e360208501826118ab565b5060408201516118f660408501826115d2565b50606082015161190960608501826115d2565b50608082015161191c60808501826115d2565b50505050565b600060a08201905061193760008301846118ba565b92915050565b6000806040838503121561195457611953610f69565b5b6000611962858286016116ae565b9250506020611973858286016116ae565b9150509250929050565b60808201600082015161199360008501826115d2565b5060208201516119a660208501826115b4565b5060408201516119b960408501826118ab565b5060608201516119cc60608501826118ab565b50505050565b60006080820190506119e7600083018461197d565b92915050565b60006119f882610fd1565b9150611a0383610fd1565b9250828201905080821115611a1b57611a1a611554565b5b92915050565b6000604082019050611a366000830185611174565b611a43602083018461114a565b9392505050565b611a538161137d565b8114611a5e57600080fd5b50565b600081519050611a7081611a4a565b92915050565b600060208284031215611a8c57611a8b610f69565b5b6000611a9a84828501611a61565b91505092915050565b600081519050919050565b600082825260208201905092915050565b6000819050602082019050919050565b6000611adb83836115b4565b60208301905092915050565b6000602082019050919050565b6000611aff82611aa3565b611b098185611aae565b9350611b1483611abf565b8060005b83811015611b45578151611b2c8882611acf565b9750611b3783611ae7565b925050600181019050611b18565b5085935050505092915050565b600081519050919050565b600082825260208201905092915050565b6000819050602082019050919050565b6000611b8a83836115d2565b60208301905092915050565b6000602082019050919050565b6000611bae82611b52565b611bb88185611b5d565b9350611bc383611b6e565b8060005b83811015611bf4578151611bdb8882611b7e565b9750611be683611b96565b925050600181019050611bc7565b5085935050505092915050565b600082825260208201905092915050565b50565b6000611c22600083611c01565b9150611c2d82611c12565b600082019050919050565b6000819050919050565b600061ffff82169050919050565b6000819050919050565b6000611c75611c70611c6b84611c38565b611c50565b611c42565b9050919050565b611c8581611c5a565b82525050565b600060e082019050611ca06000830189611174565b8181036020830152611cb28188611af4565b90508181036040830152611cc68187611ba3565b90508181036060830152611cda8186611ba3565b9050611ce96080830185611174565b81810360a0830152611cfa81611c15565b9050611d0960c0830184611c7c565b979650505050505050565b7f4f776e61626c653a206e6577206f776e657220697320746865207a65726f206160008201527f6464726573730000000000000000000000000000000000000000000000000000602082015250565b6000611d7060268361140d565b9150611d7b82611d14565b604082019050919050565b60006020820190508181036000830152611d9f81611d63565b9050919050565b7f4f776e61626c653a2063616c6c6572206973206e6f7420746865206f776e6572600082015250565b6000611ddc60208361140d565b9150611de782611da6565b602082019050919050565b60006020820190508181036000830152611e0b81611dcf565b905091905056fea2646970667358221220da9bb669e6179e1d457d68309af75ca8134200d9a871032039fb6be4a8fd027164736f6c63430008140033",
  "linkReferences": {},
  "deployedLinkReferences": {}
}