{
  "_format": "hh-sol-artifact-1",
  "contractName": "JITLPWithAave",
  "sourceName": "contracts/JITLPWithAave.sol",
  "abi": [
    {
      "inputs": [
        {
          "internalType": "address",
          "name": "_weth",
          "type": "address"
        },
        {
          "internalType": "address",
          "name": "_usdc",
          "type": "address"
        },
        {
          "internalType": "address",
          "name": "_aavePool",
          "type": "address"
        },
        {
          "internalType": "address",
          "name": "_swapRouter",
          "type": "address"
        },
        {
          "internalType": "address",
          "name": "_positionManager",
          "type": "address"
        }
      ],
      "stateMutability": "nonpayable",
      "type": "constructor"
    },
    {
      "anonymous": false,
      "inputs": [
        {
          "indexed": true,
          "internalType": "address",
          "name": "previousOwner",
          "type": "address"
        },
        {
          "indexed": true,
          "internalType": "address",
          "name": "newOwner",
          "type": "address"
        }
      ],
      "name": "OwnershipTransferred",
      "type": "event"
    },
    {
      "inputs": [],
      "name": "aavePool",
      "outputs": [
        {
          "internalType": "address",
          "name": "",
          "type": "address"
        }
      ],
      "stateMutability": "view",
      "type": "function"
    },
    {
      "inputs": [
        {
          "internalType": "address[]",
          "name": "assets",
          "type": "address[]"
        },
        {
          "internalType": "uint256[]",
          "name": "amounts",
          "type": "uint256[]"
        },
        {
          "internalType": "uint256[]",
          "name": "premiums",
          "type": "uint256[]"
        },
        {
          "internalType": "address",
          "name": "initiator",
          "type": "address"
        },
        {
          "internalType": "bytes",
          "name": "",
          "type": "bytes"
        }
      ],
      "name": "executeOperation",
      "outputs": [
        {
          "internalType": "bool",
          "name": "",
          "type": "bool"
        }
      ],
      "stateMutability": "nonpayable",
      "type": "function"
    },
    {
      "inputs": [
        {
          "internalType": "uint256",
          "name": "amount",
          "type": "uint256"
        }
      ],
      "name": "initiateFlashLoan",
      "outputs": [],
      "stateMutability": "nonpayable",
      "type": "function"
    },
    {
      "inputs": [
        {
          "internalType": "address",
          "name": "",
          "type": "address"
        },
        {
          "internalType": "address",
          "name": "",
          "type": "address"
        },
        {
          "internalType": "uint256",
          "name": "",
          "type": "uint256"
        },
        {
          "internalType": "bytes",
          "name": "",
          "type": "bytes"
        }
      ],
      "name": "onERC721Received",
      "outputs": [
        {
          "internalType": "bytes4",
          "name": "",
          "type": "bytes4"
        }
      ],
      "stateMutability": "pure",
      "type": "function"
    },
    {
      "inputs": [],
      "name": "owner",
      "outputs": [
        {
          "internalType": "address",
          "name": "",
          "type": "address"
        }
      ],
      "stateMutability": "view",
      "type": "function"
    },
    {
      "inputs": [],
      "name": "poolFee",
      "outputs": [
        {
          "internalType": "uint24",
          "name": "",
          "type": "uint24"
        }
      ],
      "stateMutability": "view",
      "type": "function"
    },
    {
      "inputs": [],
      "name": "positionManager",
      "outputs": [
        {
          "internalType": "address",
          "name": "",
          "type": "address"
        }
      ],
      "stateMutability": "view",
      "type": "function"
    },
    {
      "inputs": [],
      "name": "renounceOwnership",
      "outputs": [],
      "stateMutability": "nonpayable",
      "type": "function"
    },
    {
      "inputs": [],
      "name": "swapRouter",
      "outputs": [
        {
          "internalType": "address",
          "name": "",
          "type": "address"
        }
      ],
      "stateMutability": "view",
      "type": "function"
    },
    {
      "inputs": [],
      "name": "tickLower",
      "outputs": [
        {
          "internalType": "int24",
          "name": "",
          "type": "int24"
        }
      ],
      "stateMutability": "view",
      "type": "function"
    },
    {
      "inputs": [],
      "name": "tickUpper",
      "outputs": [
        {
          "internalType": "int24",
          "name": "",
          "type": "int24"
        }
      ],
      "stateMutability": "view",
      "type": "function"
    },
    {
      "inputs": [],
      "name": "tokenId",
      "outputs": [
        {
          "internalType": "uint256",
          "name": "",
          "type": "uint256"
        }
      ],
      "stateMutability": "view",
      "type": "function"
    },
    {
      "inputs": [
        {
          "internalType": "address",
          "name": "newOwner",
          "type": "address"
        }
      ],
      "name": "transferOwnership",
      "outputs": [],
      "stateMutability": "nonpayable",
      "type": "function"
    },
    {
      "inputs": [],
      "name": "usdc",
      "outputs": [
        {
          "internalType": "address",
          "name": "",
          "type": "address"
        }
      ],
      "stateMutability": "view",
      "type": "function"
    },
    {
      "inputs": [],
      "name": "weth",
      "outputs": [
        {
          "internalType": "address",
          "name": "",
          "type": "address"
        }
      ],
      "stateMutability": "view",
      "type": "function"
    },
    {
      "stateMutability": "payable",
      "type": "receive"
    }
  ],
  "bytecode": "0x6101206040523480156200001257600080fd5b506040516200265638038062002656833981810160405281019062000038919062000540565b620000586200004c6200040a60201b60201c565b6200041260201b60201c565b8473ffffffffffffffffffffffffffffffffffffffff1660808173ffffffffffffffffffffffffffffffffffffffff16815250508373ffffffffffffffffffffffffffffffffffffffff1660a08173ffffffffffffffffffffffffffffffffffffffff16815250508273ffffffffffffffffffffffffffffffffffffffff1660c08173ffffffffffffffffffffffffffffffffffffffff16815250508173ffffffffffffffffffffffffffffffffffffffff1660e08173ffffffffffffffffffffffffffffffffffffffff16815250508073ffffffffffffffffffffffffffffffffffffffff166101008173ffffffffffffffffffffffffffffffffffffffff168152505060805173ffffffffffffffffffffffffffffffffffffffff1663095ea7b360e0517fffffffffffffffffffffffffffffffffffffffffffffffffffffffffffffffff6040518363ffffffff1660e01b8152600401620001be929190620005f4565b6020604051808303816000875af1158015620001de573d6000803e3d6000fd5b505050506040513d601f19601f820116820180604052508101906200020491906200065e565b5060a05173ffffffffffffffffffffffffffffffffffffffff1663095ea7b360e0517fffffffffffffffffffffffffffffffffffffffffffffffffffffffffffffffff6040518363ffffffff1660e01b815260040162000266929190620005f4565b6020604051808303816000875af115801562000286573d6000803e3d6000fd5b505050506040513d601f19601f82011682018060405250810190620002ac91906200065e565b5060805173ffffffffffffffffffffffffffffffffffffffff1663095ea7b3610100517fffffffffffffffffffffffffffffffffffffffffffffffffffffffffffffffff6040518363ffffffff1660e01b81526004016200030f929190620005f4565b6020604051808303816000875af11580156200032f573d6000803e3d6000fd5b505050506040513d601f19601f820116820180604052508101906200035591906200065e565b5060a05173ffffffffffffffffffffffffffffffffffffffff1663095ea7b3610100517fffffffffffffffffffffffffffffffffffffffffffffffffffffffffffffffff6040518363ffffffff1660e01b8152600401620003b8929190620005f4565b6020604051808303816000875af1158015620003d8573d6000803e3d6000fd5b505050506040513d601f19601f82011682018060405250810190620003fe91906200065e565b50505050505062000690565b600033905090565b60008060009054906101000a900473ffffffffffffffffffffffffffffffffffffffff169050816000806101000a81548173ffffffffffffffffffffffffffffffffffffffff021916908373ffffffffffffffffffffffffffffffffffffffff1602179055508173ffffffffffffffffffffffffffffffffffffffff168173ffffffffffffffffffffffffffffffffffffffff167f8be0079c531659141344cd1fd0a4f28419497f9722a3daafe3b4186f6b6457e060405160405180910390a35050565b600080fd5b600073ffffffffffffffffffffffffffffffffffffffff82169050919050565b60006200050882620004db565b9050919050565b6200051a81620004fb565b81146200052657600080fd5b50565b6000815190506200053a816200050f565b92915050565b600080600080600060a086880312156200055f576200055e620004d6565b5b60006200056f8882890162000529565b9550506020620005828882890162000529565b9450506040620005958882890162000529565b9350506060620005a88882890162000529565b9250506080620005bb8882890162000529565b9150509295509295909350565b620005d381620004fb565b82525050565b6000819050919050565b620005ee81620005d9565b82525050565b60006040820190506200060b6000830185620005c8565b6200061a6020830184620005e3565b9392505050565b60008115159050919050565b620006388162000621565b81146200064457600080fd5b50565b60008151905062000658816200062d565b92915050565b600060208284031215620006775762000676620004d6565b5b6000620006878482850162000647565b91505092915050565b60805160a05160c05160e05161010051611f2662000730600039600081816104a50152818161079f015281816109480152610a240152600081816107010152610c5a0152600081816104f401528181610b9d01528181610c360152610db10152600081816103ac0152818161066a01526108230152600081816103d00152818161062e015281816107e701528181610b610152610cff0152611f266000f3fe6080604052600436106100ec5760003560e01c8063715018a61161008a578063a03e4bc311610059578063a03e4bc3146102e1578063c31c9c071461030c578063dbf0497b14610337578063f2fde38b14610360576100f3565b8063715018a614610237578063791b98bc1461024e5780638da5cb5b14610279578063920f5c84146102a4576100f3565b80633e413bee116100c65780633e413bee1461018b5780633fc8cef3146101b657806355b812a8146101e157806359c4f9051461020c576100f3565b8063089fe6aa146100f8578063150b7a021461012357806317d70f7c14610160576100f3565b366100f357005b600080fd5b34801561010457600080fd5b5061010d610389565b60405161011a919061102c565b60405180910390f35b34801561012f57600080fd5b5061014a6004803603810190610145919061114a565b61038f565b604051610157919061120d565b60405180910390f35b34801561016c57600080fd5b506101756103a4565b6040516101829190611237565b60405180910390f35b34801561019757600080fd5b506101a06103aa565b6040516101ad9190611261565b60405180910390f35b3480156101c257600080fd5b506101cb6103ce565b6040516101d89190611261565b60405180910390f35b3480156101ed57600080fd5b506101f66103f2565b6040516102039190611298565b60405180910390f35b34801561021857600080fd5b506102216103f7565b60405161022e9190611298565b60405180910390f35b34801561024357600080fd5b5061024c61041b565b005b34801561025a57600080fd5b506102636104a3565b6040516102709190611261565b60405180910390f35b34801561028557600080fd5b5061028e6104c7565b60405161029b9190611261565b60405180910390f35b3480156102b057600080fd5b506102cb60048036038101906102c6919061135f565b6104f0565b6040516102d89190611476565b60405180910390f35b3480156102ed57600080fd5b506102f6610c34565b6040516103039190611261565b60405180910390f35b34801561031857600080fd5b50610321610c58565b60405161032e9190611261565b60405180910390f35b34801561034357600080fd5b5061035e60048036038101906103599190611491565b610c7c565b005b34801561036c57600080fd5b50610387600480360381019061038291906114be565b610e4b565b005b6101f481565b600063150b7a0260e01b905095945050505050565b60015481565b7f000000000000000000000000000000000000000000000000000000000000000081565b7f000000000000000000000000000000000000000000000000000000000000000081565b603c81565b7fffffffffffffffffffffffffffffffffffffffffffffffffffffffffffffffc481565b610423610f42565b73ffffffffffffffffffffffffffffffffffffffff166104416104c7565b73ffffffffffffffffffffffffffffffffffffffff1614610497576040517f08c379a000000000000000000000000000000000000000000000000000000000815260040161048e90611548565b60405180910390fd5b6104a16000610f4a565b565b7f000000000000000000000000000000000000000000000000000000000000000081565b60008060009054906101000a900473ffffffffffffffffffffffffffffffffffffffff16905090565b60007f000000000000000000000000000000000000000000000000000000000000000073ffffffffffffffffffffffffffffffffffffffff163373ffffffffffffffffffffffffffffffffffffffff1614610580576040517f08c379a0000000000000000000000000000000000000000000000000000000008152600401610577906115b4565b60405180910390fd5b3073ffffffffffffffffffffffffffffffffffffffff168473ffffffffffffffffffffffffffffffffffffffff16146105ee576040517f08c379a00000000000000000000000000000000000000000000000000000000081526004016105e590611620565b60405180910390fd5b60008888600081811061060457610603611640565b5b905060200201359050600060028261061c91906116cd565b905060006040518061010001604052807f000000000000000000000000000000000000000000000000000000000000000073ffffffffffffffffffffffffffffffffffffffff1681526020017f000000000000000000000000000000000000000000000000000000000000000073ffffffffffffffffffffffffffffffffffffffff1681526020016101f462ffffff1681526020013073ffffffffffffffffffffffffffffffffffffffff16815260200142815260200183815260200160008152602001600073ffffffffffffffffffffffffffffffffffffffff16815250905060007f000000000000000000000000000000000000000000000000000000000000000073ffffffffffffffffffffffffffffffffffffffff1663414bf389836040518263ffffffff1660e01b815260040161075891906117dc565b6020604051808303816000875af1158015610777573d6000803e3d6000fd5b505050506040513d601f19601f8201168201806040525081019061079b919061180d565b90507f000000000000000000000000000000000000000000000000000000000000000073ffffffffffffffffffffffffffffffffffffffff1663883164566040518061016001604052807f000000000000000000000000000000000000000000000000000000000000000073ffffffffffffffffffffffffffffffffffffffff1681526020017f000000000000000000000000000000000000000000000000000000000000000073ffffffffffffffffffffffffffffffffffffffff1681526020016101f462ffffff1681526020017fffffffffffffffffffffffffffffffffffffffffffffffffffffffffffffffc460020b8152602001603c60020b815260200186815260200184815260200160008152602001600081526020013073ffffffffffffffffffffffffffffffffffffffff168152602001428152506040518263ffffffff1660e01b81526004016108f3919061192a565b6080604051808303816000875af1158015610912573d6000803e3d6000fd5b505050506040513d601f19601f82011682018060405250810190610936919061198e565b909150905050600160008291905055507f000000000000000000000000000000000000000000000000000000000000000073ffffffffffffffffffffffffffffffffffffffff16630c49ccbe6040518060a001604052806001548152602001620f42406fffffffffffffffffffffffffffffffff1681526020016000815260200160008152602001428152506040518263ffffffff1660e01b81526004016109de9190611a6c565b60408051808303816000875af11580156109fc573d6000803e3d6000fd5b505050506040513d601f19601f82011682018060405250810190610a209190611a87565b50507f000000000000000000000000000000000000000000000000000000000000000073ffffffffffffffffffffffffffffffffffffffff1663fc6f7865604051806080016040528060015481526020013073ffffffffffffffffffffffffffffffffffffffff1681526020016fffffffffffffffffffffffffffffffff801681526020016fffffffffffffffffffffffffffffffff80168152506040518263ffffffff1660e01b8152600401610ad79190611b1c565b60408051808303816000875af1158015610af5573d6000803e3d6000fd5b505050506040513d601f19601f82011682018060405250810190610b199190611a87565b505060008a8a6000818110610b3157610b30611640565b5b905060200201358d8d6000818110610b4c57610b4b611640565b5b90506020020135610b5d9190611b37565b90507f000000000000000000000000000000000000000000000000000000000000000073ffffffffffffffffffffffffffffffffffffffff1663095ea7b37f0000000000000000000000000000000000000000000000000000000000000000836040518363ffffffff1660e01b8152600401610bda929190611b6b565b6020604051808303816000875af1158015610bf9573d6000803e3d6000fd5b505050506040513d601f19601f82011682018060405250810190610c1d9190611bc0565b506001955050505050509998505050505050505050565b7f000000000000000000000000000000000000000000000000000000000000000081565b7f000000000000000000000000000000000000000000000000000000000000000081565b610c84610f42565b73ffffffffffffffffffffffffffffffffffffffff16610ca26104c7565b73ffffffffffffffffffffffffffffffffffffffff1614610cf8576040517f08c379a0000000000000000000000000000000000000000000000000000000008152600401610cef90611548565b60405180910390fd5b60608060607f000000000000000000000000000000000000000000000000000000000000000083600081518110610d3257610d31611640565b5b602002602001019073ffffffffffffffffffffffffffffffffffffffff16908173ffffffffffffffffffffffffffffffffffffffff16815250508382600081518110610d8157610d80611640565b5b602002602001018181525050600081600081518110610da357610da2611640565b5b6020026020010181815250507f000000000000000000000000000000000000000000000000000000000000000073ffffffffffffffffffffffffffffffffffffffff1663ab9c4b5d308585853060006040518763ffffffff1660e01b8152600401610e1396959493929190611dd5565b600060405180830381600087803b158015610e2d57600080fd5b505af1158015610e41573d6000803e3d6000fd5b5050505050505050565b610e53610f42565b73ffffffffffffffffffffffffffffffffffffffff16610e716104c7565b73ffffffffffffffffffffffffffffffffffffffff1614610ec7576040517f08c379a0000000000000000000000000000000000000000000000000000000008152600401610ebe90611548565b60405180910390fd5b600073ffffffffffffffffffffffffffffffffffffffff168173ffffffffffffffffffffffffffffffffffffffff1603610f36576040517f08c379a0000000000000000000000000000000000000000000000000000000008152600401610f2d90611ed0565b60405180910390fd5b610f3f81610f4a565b50565b600033905090565b60008060009054906101000a900473ffffffffffffffffffffffffffffffffffffffff169050816000806101000a81548173ffffffffffffffffffffffffffffffffffffffff021916908373ffffffffffffffffffffffffffffffffffffffff1602179055508173ffffffffffffffffffffffffffffffffffffffff168173ffffffffffffffffffffffffffffffffffffffff167f8be0079c531659141344cd1fd0a4f28419497f9722a3daafe3b4186f6b6457e060405160405180910390a35050565b600062ffffff82169050919050565b6110268161100e565b82525050565b6000602082019050611041600083018461101d565b92915050565b600080fd5b600080fd5b600073ffffffffffffffffffffffffffffffffffffffff82169050919050565b600061107c82611051565b9050919050565b61108c81611071565b811461109757600080fd5b50565b6000813590506110a981611083565b92915050565b6000819050919050565b6110c2816110af565b81146110cd57600080fd5b50565b6000813590506110df816110b9565b92915050565b600080fd5b600080fd5b600080fd5b60008083601f84011261110a576111096110e5565b5b8235905067ffffffffffffffff811115611127576111266110ea565b5b602083019150836001820283011115611143576111426110ef565b5b9250929050565b60008060008060006080868803121561116657611165611047565b5b60006111748882890161109a565b95505060206111858882890161109a565b9450506040611196888289016110d0565b935050606086013567ffffffffffffffff8111156111b7576111b661104c565b5b6111c3888289016110f4565b92509250509295509295909350565b60007fffffffff0000000000000000000000000000000000000000000000000000000082169050919050565b611207816111d2565b82525050565b600060208201905061122260008301846111fe565b92915050565b611231816110af565b82525050565b600060208201905061124c6000830184611228565b92915050565b61125b81611071565b82525050565b60006020820190506112766000830184611252565b92915050565b60008160020b9050919050565b6112928161127c565b82525050565b60006020820190506112ad6000830184611289565b92915050565b60008083601f8401126112c9576112c86110e5565b5b8235905067ffffffffffffffff8111156112e6576112e56110ea565b5b602083019150836020820283011115611302576113016110ef565b5b9250929050565b60008083601f84011261131f5761131e6110e5565b5b8235905067ffffffffffffffff81111561133c5761133b6110ea565b5b602083019150836020820283011115611358576113576110ef565b5b9250929050565b600080600080600080600080600060a08a8c03121561138157611380611047565b5b60008a013567ffffffffffffffff81111561139f5761139e61104c565b5b6113ab8c828d016112b3565b995099505060208a013567ffffffffffffffff8111156113ce576113cd61104c565b5b6113da8c828d01611309565b975097505060408a013567ffffffffffffffff8111156113fd576113fc61104c565b5b6114098c828d01611309565b9550955050606061141c8c828d0161109a565b93505060808a013567ffffffffffffffff81111561143d5761143c61104c565b5b6114498c828d016110f4565b92509250509295985092959850929598565b60008115159050919050565b6114708161145b565b82525050565b600060208201905061148b6000830184611467565b92915050565b6000602082840312156114a7576114a6611047565b5b60006114b5848285016110d0565b91505092915050565b6000602082840312156114d4576114d3611047565b5b60006114e28482850161109a565b91505092915050565b600082825260208201905092915050565b7f4f776e61626c653a2063616c6c6572206973206e6f7420746865206f776e6572600082015250565b60006115326020836114eb565b915061153d826114fc565b602082019050919050565b6000602082019050818103600083015261156181611525565b9050919050565b7f4e6f74204161766520706f6f6c00000000000000000000000000000000000000600082015250565b600061159e600d836114eb565b91506115a982611568565b602082019050919050565b600060208201905081810360008301526115cd81611591565b9050919050565b7f4e6f7420696e69746961746564206279207468697320636f6e74726163740000600082015250565b600061160a601e836114eb565b9150611615826115d4565b602082019050919050565b60006020820190508181036000830152611639816115fd565b9050919050565b7f4e487b7100000000000000000000000000000000000000000000000000000000600052603260045260246000fd5b7f4e487b7100000000000000000000000000000000000000000000000000000000600052601260045260246000fd5b7f4e487b7100000000000000000000000000000000000000000000000000000000600052601160045260246000fd5b60006116d8826110af565b91506116e3836110af565b9250826116f3576116f261166f565b5b828204905092915050565b61170781611071565b82525050565b6117168161100e565b82525050565b611725816110af565b82525050565b61173481611051565b82525050565b6101008201600082015161175160008501826116fe565b50602082015161176460208501826116fe565b506040820151611777604085018261170d565b50606082015161178a60608501826116fe565b50608082015161179d608085018261171c565b5060a08201516117b060a085018261171c565b5060c08201516117c360c085018261171c565b5060e08201516117d660e085018261172b565b50505050565b6000610100820190506117f2600083018461173a565b92915050565b600081519050611807816110b9565b92915050565b60006020828403121561182357611822611047565b5b6000611831848285016117f8565b91505092915050565b6118438161127c565b82525050565b6101608201600082015161186060008501826116fe565b50602082015161187360208501826116fe565b506040820151611886604085018261170d565b506060820151611899606085018261183a565b5060808201516118ac608085018261183a565b5060a08201516118bf60a085018261171c565b5060c08201516118d260c085018261171c565b5060e08201516118e560e085018261171c565b506101008201516118fa61010085018261171c565b5061012082015161190f6101208501826116fe565b5061014082015161192461014085018261171c565b50505050565b6000610160820190506119406000830184611849565b92915050565b60006fffffffffffffffffffffffffffffffff82169050919050565b61196b81611946565b811461197657600080fd5b50565b60008151905061198881611962565b92915050565b600080600080608085870312156119a8576119a7611047565b5b60006119b6878288016117f8565b94505060206119c787828801611979565b93505060406119d8878288016117f8565b92505060606119e9878288016117f8565b91505092959194509250565b6119fe81611946565b82525050565b60a082016000820151611a1a600085018261171c565b506020820151611a2d60208501826119f5565b506040820151611a40604085018261171c565b506060820151611a53606085018261171c565b506080820151611a66608085018261171c565b50505050565b600060a082019050611a816000830184611a04565b92915050565b60008060408385031215611a9e57611a9d611047565b5b6000611aac858286016117f8565b9250506020611abd858286016117f8565b9150509250929050565b608082016000820151611add600085018261171c565b506020820151611af060208501826116fe565b506040820151611b0360408501826119f5565b506060820151611b1660608501826119f5565b50505050565b6000608082019050611b316000830184611ac7565b92915050565b6000611b42826110af565b9150611b4d836110af565b9250828201905080821115611b6557611b6461169e565b5b92915050565b6000604082019050611b806000830185611252565b611b8d6020830184611228565b9392505050565b611b9d8161145b565b8114611ba857600080fd5b50565b600081519050611bba81611b94565b92915050565b600060208284031215611bd657611bd5611047565b5b6000611be484828501611bab565b91505092915050565b600081519050919050565b600082825260208201905092915050565b6000819050602082019050919050565b6000611c2583836116fe565b60208301905092915050565b6000602082019050919050565b6000611c4982611bed565b611c538185611bf8565b9350611c5e83611c09565b8060005b83811015611c8f578151611c768882611c19565b9750611c8183611c31565b925050600181019050611c62565b5085935050505092915050565b600081519050919050565b600082825260208201905092915050565b6000819050602082019050919050565b6000611cd4838361171c565b60208301905092915050565b6000602082019050919050565b6000611cf882611c9c565b611d028185611ca7565b9350611d0d83611cb8565b8060005b83811015611d3e578151611d258882611cc8565b9750611d3083611ce0565b925050600181019050611d11565b5085935050505092915050565b600082825260208201905092915050565b50565b6000611d6c600083611d4b565b9150611d7782611d5c565b600082019050919050565b6000819050919050565b600061ffff82169050919050565b6000819050919050565b6000611dbf611dba611db584611d82565b611d9a565b611d8c565b9050919050565b611dcf81611da4565b82525050565b600060e082019050611dea6000830189611252565b8181036020830152611dfc8188611c3e565b90508181036040830152611e108187611ced565b90508181036060830152611e248186611ced565b9050611e336080830185611252565b81810360a0830152611e4481611d5f565b9050611e5360c0830184611dc6565b979650505050505050565b7f4f776e61626c653a206e6577206f776e657220697320746865207a65726f206160008201527f6464726573730000000000000000000000000000000000000000000000000000602082015250565b6000611eba6026836114eb565b9150611ec582611e5e565b604082019050919050565b60006020820190508181036000830152611ee981611ead565b905091905056fea264697066735822122073c3d914351ff8dd0fbeab712b199b04aa239b93265727fc9df7935a87b258fd64736f6c63430008140033",
  "linkReferences": {},
  "deployedLinkReferences": {}
}